:04000000DBEF00F042
:08000800046ED8CF05F0E0CF33
:1000100006F00001E9CF0CF0EACF07F0E1CF08F0DD
:10002000E2CF09F0D9CF0AF0DACF0BF0F3CF12F01C
:10003000F4CF13F0FACF14F000C00EF001C00FF0AF
:1000400002C010F003C011F09DA02AEF00F09EB096
:1000500079EF00F00EC000F00FC001F010C002F008
:1000600011C003F00CC0E9FF07C0EAFF078E08C00B
:10007000E1FF09C0E2FF0AC0D9FF0BC0DAFF12C0DE
:10008000F3FF13C0F4FF14C0FAFF045006C0E0FFF2
:1000900005C0D8FF1000F2CF0DF0F29EF76AB00F46
:1000A000F66E000EF7220900F5500DBEF28E12001A
:1000B0003E3D3B372F1FF2CF0DF0F29EF76AD00F77
:1000C000F66E000EF7220900F5500DBEF28E1200FA
:1000D00021212139213F929C899C94908B90929E62
:1000E000898E94928B8294948B84949E8B8E2D6AAD
:1000F0001200C7A0FED7C9CF2CF02C507F0B296E61
:10010000295221E0295003081EE32CAE0ED02950BD
:10011000010A05E0030A04E0010A03E005D004D067
:1001200003D094948B9400D00DD02950010A05E09F
:10013000030A04E0010A03E005D004D003D094943C
:100140008B8400D008D02950040805E12D2C03D061
:10015000010E946FC0DFC69E949C8B8C2BC0C9FF90
:100160002B6A949C8B9CB10ECF6EE00ECE6E9E904F
:100170002AEF00F0EA6A9B0EE96EEF500DE0020EE6
:10018000016E006A002EFED7012EFBD7970E006E7F
:10019000002EFED7EF2EF3D71200929C898C9490FC
:1001A0008B80929E899E94928B92949E8B9E010E40
:1001B0002D6E5FEF04F0F86AD09E078EF20E006E8F
:1001C0000F0E016E020EE96E000EEA6EEE6A04007A
:1001D000002EFCD7012EFAD7800E006E010E016EA4
:1001E000000EE96E0F0EEA6EEE6A0400002EFCD7D8
:1001F000012EFAD7C150C00B0F09C16E070EB46EA5
:10020000F29CF29EF2BEFDD7700ED36ED350000E5C
:10021000926EFF0E936E100E946ECF0E826E7F0E56
:10022000806E816858DF2D6A310EC66EC76A550E22
:10023000C96E880ED56E850ECD6ECD6EF30ECF6E67
:100240004E0ECE6E9D80C00EF212266A2650050814
:100250001EE38050C00B9B6F036A2650F2CF9CF0C8
:10026000F29E19DF9CBFF28E016E9B5101102A6E27
:10027000926A2AC089FF036A2650200FE96E000E99
:100280000320EA6E936881CFEFFF262ADFD7266A24
:1002900026500508D8A035EF05F0286A8050C00B1D
:1002A0009B6F036A2650F2CF9CF0F29EF4DE9CBF57
:1002B000F28E016E9B5101102A6E926A2AC089FF4C
:1002C000036A2650170FE96E000E0320EA6E93684A
:1002D00081CFEFFF036A2650200FE96E000E032046
:1002E000EA6EEFCF9BF0036A2650170FE96E000EFF
:1002F0000320EA6EEF509B19D8B42AEF05F0036A89
:100300002650170FE96E000E0320EA6EEFCF9BF028
:10031000036A2650F2CF9CF0F29ECDDE9CBFF28E97
:10032000016E9B17036A2650F2CF9CF0F29EC3DE4B
:100330009CBFF28E016E9B5D1BE0010E9B6F1ADF6E
:10034000936881CF1DF0010E9B6F14DF936881CFFE
:100350001EF0010E9B6F0EDF936881CF1FF01E50C1
:100360001D5C05E11F501E5C02E1010E956F45D03A
:10037000936881CF96F0840E006E002EFED700D0D9
:100380000000936881CF97F0840E006E002EFED798
:1003900000D000009751965D2FE1936881CF98F0CF
:1003A000840E006E002EFED700D000009851975D9D
:1003B00021E1936881CF99F0840E006E002EFED764
:1003C00000D000009951985D13E1936881CF9AF0B5
:1003D000840E006E002EFED700D000009A51995D69
:1003E00005E1010E956F9AC01FF001D0956B01D009
:1003F000956B01D0956B01D0956B952D2AEF05F08B
:10040000265011E0010AD8B4A8D0030AD8B43ED1CE
:10041000010AD8B4D4D1070AD8B44CD2010AD8B44E
:10042000ABD220EF05F01FB00ED0810E2B6E93687B
:1004300081CF1FF01FA0FBD72B52D8A4FDD7010EF0
:100440002B6E20EF05F01FBA0DD0820E2B6E936835
:1004500081CF1FF01FAAFBD72B52D8A4FDD7020EC5
:100460002B6EEED21FA237D01FA435D0276A27509B
:10047000010831E3020E006E2750016E04E0D890AF
:100480000036012EFCD700501F1423E0036A2650CB
:10049000200FE96E000E0320EA6EEFCF9BF0020EF4
:1004A000006E2750016E04E0D8900036012EFCD774
:1004B00000509B150EE1275003E0010A06E009D029
:1004C000010E286E140E2B6E04D0010E286E940EB1
:1004D0002B6E272ACCD71FA635D01FA833D0285281
:1004E00031E1276A275001082DE3080E006E2750DE
:1004F000016E04E0D8900036012EFCD700501F1486
:100500001FE0036A2650200FE96E000E0320EA6EFA
:10051000EFCF9BF0080E006E2750016E04E0D890DC
:100520000036012EFCD700509B150AE1275003E04E
:10053000010A04E005D0150E2B6E02D0950E2B6E2D
:10054000272AD0D7036A2650200FE96E000E032019
:10055000EA6E1FC0EFFF286A73D21FB00DD0830E62
:100560002B6E936881CF1FF01FA0FBD72B52D8A40E
:10057000FDD7030E2B6E64D21FBA0DD0840E2B6EE6
:10058000936881CF1FF01FAAFBD72B52D8A4FDD7A9
:10059000040E2B6E55D21FA237D01FA435D0276A68
:1005A0002750010831E3020E006E2750016E04E06F
:1005B000D8900036012EFCD700501F1423E0036AA8
:1005C0002650200FE96E000E0320EA6EEFCF9BF05D
:1005D000020E006E2750016E04E0D8900036012E06
:1005E000FCD700509B150EE1275003E0010A06E0FE
:1005F00009D0010E286E160E2B6E04D0010E286E47
:10060000960E2B6E272ACCD71FA635D01FA833D025
:10061000285231E1276A275001082DE3080E006EA9
:100620002750016E04E0D8900036012EFCD7005010
:100630001F141FE0036A2650200FE96E000E0320EE
:10064000EA6EEFCF9BF0080E006E2750016E04E0BB
:10065000D8900036012EFCD700509B150AE1275098
:1006600003E0010A04E005D0170E2B6E02D0970EAE
:100670002B6E272AD0D7036A2650200FE96E000E72
:100680000320EA6E1FC0EFFF286ADAD11FB00DD039
:10069000850E2B6E936881CF1FF01FA0FBD72B52C6
:1006A000D8A4FDD7050E2B6ECBD11FBA0DD0860E68
:1006B0002B6E936881CF1FF01FAAFBD72B52D8A4B3
:1006C000FDD7060E2B6EBCD11FA237D01FA435D08C
:1006D000276A2750010831E3020E006E2750016E91
:1006E00004E0D8900036012EFCD700501F1423E000
:1006F000036A2650200FE96E000E0320EA6EEFCF4A
:100700009BF0020E006E2750016E04E0D890003678
:10071000012EFCD700509B150EE1275003E0010A83
:1007200006E009D0010E286E180E2B6E04D0010EC3
:10073000286E980E2B6E272ACCD71FA635D01FA85F
:1007400033D0285231E1276A275001082DE3080EE3
:10075000006E2750016E04E0D8900036012EFCD7C1
:1007600000501F141FE0036A2650200FE96E000E90
:100770000320EA6EEFCF9BF0080E006E2750016E4B
:1007800004E0D8900036012EFCD700509B150AE1FA
:10079000275003E0010A04E005D0190E2B6E02D0A9
:1007A000990E2B6E272AD0D7036A2650200FE96EA8
:1007B000000E0320EA6E1FC0EFFF286A41D11FB070
:1007C0000DD0870E2B6E936881CF1FF01FA0FBD733
:1007D0002B52D8A4FDD7070E2B6E32D11FB60DD0E9
:1007E000880E2B6E936881CF1FF01FA6FBD72B526C
:1007F000D8A4FDD7080E2B6E23D11FB80DD0890EBB
:100800002B6E936881CF1FF01FA8FBD72B52D8A463
:10081000FDD7090E2B6E14D11FBA0DD08A0E2B6E88
:10082000936881CF1FF01FAAFBD72B52D8A4FDD706
:100830000A0E2B6E05D11FA233D01FA431D0276A18
:10084000275001082DE3020E006E2750016E04E0D0
:10085000D8900036012EFCD700501F141FE0036A09
:100860002650200FE96E000E0320EA6EEFCF9BF0BA
:10087000020E006E2750016E04E0D8900036012E63
:10088000FCD700509B150AE1275003E0010A04E061
:1008900005D01A0E2B6E02D09A0E2B6E272AD0D7B7
:1008A000036A2650200FE96E000E0320EA6E1FC077
:1008B000EFFFC6D01FB012D02D520AE16ED4010E48
:1008C0009B6F58DC936881CF1FF01FA0FBD705D02A
:1008D0002B52D8A4FDD78B0E2B6EB2D01FBA0DD0E1
:1008E0008C0E2B6E936881CF1FF01FAAFBD72B5263
:1008F000D8A4FDD70C0E2B6EA3D01FA233D01FA4FB
:1009000031D0276A275001082DE3020E006E2750D0
:10091000016E04E0D8900036012EFCD700501F1461
:100920001FE0036A2650200FE96E000E0320EA6ED6
:10093000EFCF9BF0020E006E2750016E04E0D890BE
:100940000036012EFCD700509B150AE1275003E02A
:10095000010A04E005D01B0E2B6E02D09B0E2B6EFD
:10096000272AD0D7036A2650200FE96E000E0320F5
:10097000EA6E1FC0EFFF64D01FB00DD08D0E2B6E3E
:10098000936881CF1FF01FA0FBD72B52D8A4FDD7AF
:100990000D0E2B6E55D01FB20DD08E0E2B6E9368A0
:1009A00081CF1FF01FA2FBD72B52D8A4FDD70E0E6C
:1009B0002B6E46D01FB40DD08F0E2B6E936881CF57
:1009C0001FF01FA4FBD72B52D8A4FDD70F0E2B6E00
:1009D00037D01FB60DD0900E2B6E936881CF1FF0CD
:1009E0001FA6FBD72B52D8A4FDD7100E2B6E28D0F4
:1009F0001FB80DD0910E2B6E936881CF1FF01FA8EA
:100A0000FBD72B52D8A4FDD7110E2B6E19D01FBACD
:100A10000DD0920E2B6E936881CF1FF01FAAFBD7CB
:100A20002B52D8A4FDD7120E2B6E0AD0036A265083
:100A3000200FE96E000E0320EA6E1FC0EFFF00D00A
:100A4000036A2650200FE96E000E0320EA6E1FC0D5
:100A5000EFFF956B942D07D0929C899C929E898E76
:0E0A6000949E8B8E946B262A13D411D4FFD74C
:020000040030CA
:0E00000000CF191E008700000FC00FE00F4058
:00000001FF
;PIC18F2515
;CRC=14DE  CREATED="28-апр-17 14:33"
